:020000040800F2
:10000000E8A3002059020008E9520008C14700088F
:10001000555100082F1200084DB7000800000000DD
:10002000000000000000000000000000A101000826
:100030001D26000800000000F5010008F9800008F6
:1000400073020008730200087302000873020008BC
:1000500073020008730200087302000873020008AC
:10006000730200087302000873020008730200089C
:10007000730200087302000873020008730200088C
:10008000730200087302000873020008730200087C
:10009000DD1400087302000873020008412D0008F7
:1000A000730200087302000873020008418400080C
:1000B000730200087302000873020008730200084C
:1000C000730200087302000873020008730200083C
:1000D00073020008D19500080596000829960008CB
:1000E000730200087302000873020008730200081C
:1000F000730200087302000873020008730200080C
:1001000073020008730200087302000873020008FB
:1001100021910008730200087302000873020008AE
:1001200073020008730200087302000873020008DB
:1001300073020008730200087302000873020008CB
:100140007302000873020008730200083960000897
:1001500073020008730200087302000873020008AB
:10016000730200087302000873020008730200089B
:10017000730200087302000873020008730200088B
:100180007302000873020008DFF810D000F040FC92
:100190000048004765F70008AFF30080E8A300209F
:1001A0002A4B19680868B0E8F04F80F30988BFF35C
:1001B0006F8F4FF0000080F311887047000000003F
:1001C00006480068006880F3088862B661B6BFF32D
:1001D0004F8FBFF36F8F00DF00BF00BF08ED00E05F
:1001E000DFF80C00016841F470010160704700BF46
:1001F00088ED00E0EFF30980BFF36F8F134B1A68AF
:100200001EF0100F08BF20ED108A20E9F04F10609B
:1002100008B44FF0500080F31188BFF34F8FBFF345
:100220006F8F11F03BFE4FF0000080F3118808BC87
:1002300019680868B0E8F04F1EF0100F08BFB0EC66
:10024000108A80F30988BFF36F8F70471000002079
:10025000EFF30580704700000648804706480047D6
:10026000FEE7FEE7FEE7FEE7FEE7FEE7FEE7FEE766
:10027000FEE7FEE7818300088901000840EA0103E8
:100280009B0703D009E008C9121F08C0042AFAD24C
:1002900003E011F8013B00F8013B521EF9D2704710
:1002A000D2B201E000F8012B491EFBD270470022B8
:1002B000F6E710B513460A4604461946FFF7F0FF65
:1002C000204610BD421E12F8013F002BFBD111F851
:1002D000013B02F8013B002BF9D17047421C10F89A
:1002E000011B0029FBD1801A704710B5002200E0E5
:1002F000521C835C8C5CA34201D1002BF8D1D8B294
:10030000E1B2401A10BD2DE9FE4F804681EA03009C
:10031000C00F0C46009021F0004123F00045B8EBDF
:100320000200A94105D24046214690461C460B4694
:10033000024623F00040104347D0270DC7F30A00C0
:10034000C3F30A510290401A019040286BDAC3F3BC
:10035000130040F4801B0098924620B10023D2EB9A
:10036000030A63EB0B0B01985946C0F1400250465B
:1003700000F017FA06460D4650465946019A00F01D
:100380002FFA10EB08006141002487EA115284EA39
:10039000E7731A4340D0009A62B3019A012A4FEAE8
:1003A000075215DC001B61EB02014FF0004202EA2C
:1003B0000752CDE90042001C41F5801132462B4620
:1003C00000F066FA03B0BDE8F08F40462146F9E739
:1003D000001B61EB0201001C41F5801300185B411A
:1003E0002018A2F5001747EB030140EAD570B619B3
:1003F0006D4111E06D084FEA360645EAC0754FEAD7
:100400000752001B61EB0201001C41F580114908F5
:100410004FEA30000019514132462B4603B0BDE887
:10042000F04F00F026BA0098012240000023D0EBE4
:10043000020263EBE073009821464FEAE074B8EBE8
:10044000000061EB0401E9E783F000435BE781F022
:10045000004158E72DE9FE4F81EA030404F000440F
:1004600021F0004100944FF0000B23F0004350EACC
:1004700001045ED052EA03045BD0C3F30A54C1F313
:100480000A552C44A4F2F3340194A0FB0254C1F3A6
:10049000130141F48011C3F3130343F4801301FBF0
:1004A000024400FB034E840A970A44EA815447EA57
:1004B0008357A4FB076802958D0A05FB07854FEA61
:1004C000932C04FB0C542705029D4FEA065847EA7B
:1004D0001637B5EB08056EEB070C870E920E47EA50
:1004E000811742EA8312A7FB0201B6EB0B0164EB12
:1004F00000042B0D43EA0C335E1844EB1C50DA4623
:100500005146E7FB0201C5F313044FEA0B3343EAFC
:1005100014534FEA0432019C43EA0603A4F10C048D
:100520000294009CCDE900B400F0B2F903B0BDE83C
:10053000F08F00200146F9E72DE9F04D81EA030430
:1005400004F0004B21F0004514464FF0000A23F060
:10055000004150EA050220D054EA01021DD0C5F343
:100560000A570246C5F31303C1F31300C1F30A5639
:1005700040F4801543F48013A7EB0608101BD64601
:1005800008F2FD3873EB050002D308F1010801E021
:1005900092185B41B8F1000F03DA00200146BDE874
:1005A000F08D00204FF48011064684460EE0171BA4
:1005B00073EB050705D3121B63EB050306434CEAF7
:1005C000010C49084FEA300092185B4150EA0107DC
:1005D000EDD152EA030012D082EA040083EA050159
:1005E000084305D0101BAB4106D20122002306E0D0
:1005F00000224FF0004302E06FF0010253101AEBAB
:1006000006004CEB085110EB0A0041EB0B01BDE872
:10061000F04D00F02EB90EB5C10F80EAE07008442D
:10062000CA07002140F233438DE80E000A460B460C
:1006300000F02EF903B000BD0EB540F23341029137
:100640000021CDE900110A460B4600F021F903B064
:1006500000BDC1F30A5210B5C1F3130140F2FF33DC
:1006600041F480119A4201DA002010BD40F2334378
:100670009A42A2F2334203DC524200F0A1F810BDCC
:10068000904010BD00F0004230F000400AD0C10D93
:1006900001F56071C0F3160042EA0151C20840073B
:1006A00011437047002001467047000030B5041E1A
:1006B00071F1000404DB4FF00044404264EB01019F
:1006C000141E73F1000405DB1C464FF00043524238
:1006D00063EB0403994208BF904230BD01F0004330
:1006E00030B421F0004150EA010206D00A0DA2F513
:1006F0006072C1F31301002A02DC30BC0020704795
:10070000440F44EAC104C100E01830BC00EBC25001
:1007100000F078B830B50B460146002020220124B5
:1007200009E021FA02F59D4205D303FA02F5491BBF
:1007300004FA02F52844151EA2F10102F1DC30BDD5
:100740002DE9F05F0546002092469B468846064606
:10075000814640241BE0284641464746224600F099
:100760002FF853465A46C01A914110D311461846E5
:10077000224600F016F82D1A67EB01084F46224674
:100780000120002100F00DF817EB00094E41201E5A
:10079000A4F10104DFDC484631462A464346BDE861
:1007A000F09F202A04DB203A00FA02F10020704773
:1007B0009140C2F1200320FA03F31943904070479F
:1007C000202A04DB203A21FA02F00021704721FAA6
:1007D00002F3D040C2F1200291400843194670470D
:1007E000202A06DBCB17203A41FA02F043EAE073F5
:1007F00006E041FA02F3D040C2F1200291400843E2
:10080000194670470029A8BF7047401C490008BF1F
:1008100020F00100704710B4B0FA80FC00FA0CF030
:1008200050EA010404BF10BC704749B1CCF1200468
:1008300021FA04F411FA0CF118BF012121430843F5
:10084000A3EB0C01CB1D4FEA00614FEA102042BF21
:10085000002010BC704700EBC35010440029A4BF17
:1008600010BC7047401C490008BF20F0010010BCBC
:10087000704710B5141E73F1000408DA401C41F1F2
:10088000000192185B411A4301D120F0010010BD14
:100890002DE9F04D92469B4611B1B1FA81F202E08A
:1008A000B0FA80F220329046FFF77BFF04460F46F5
:1008B00040EA0A0041EA0B0153465A46084313D066
:1008C000114653EA010019D0C8F140025046FFF723
:1008D00077FF05460E46504659464246FFF761FFF0
:1008E000084305D0012004E020463946BDE8F08DDC
:1008F0000020054346EAE0762C4337430A98630517
:10090000E40AA0EB08000022FD0A44EA47540A303A
:1009100002D500200146E9E7010510196941DDE92A
:10092000084500196941BDE8F04DA2E770B521F016
:10093000004303430CD0C1F30A550024D5EB040552
:1009400064EB0403D617AD1AB34102DB0020014665
:1009500070BD201841EB025170BD2DE9FE4FC3F36D
:100960000A5701F000450024C1F30A56C3F31303EC
:10097000C1F3130143F4801312EB020AA64641F4BB
:100980008011009543EB030CA7F1010B16E0B0EBCF
:100990000A0061EB0C01071E71F1000707DA4FF046
:1009A0000008D0EB080085F0004568EB0101171A3C
:1009B00073EB0107EBD3761E001849415E45F6DA6A
:1009C00050EA010209D0CDE900E500221346029663
:1009D000FFF75EFF03B0BDE8F08F20460099F9E70E
:1009E000C1F30A52C1F3130140F2FF3341F4801105
:1009F0009A4202DA00200146704740F233439A429D
:100A0000A2F2334202DC5242FFF7DABEFFF7C9BE60
:100A1000064C074D06E0E06840F0010394E807004B
:100A200098471034AC42F6D3FFF7B2FBC048010838
:100A3000E04801082DE9F04D00231A461B1A8A41AF
:100A400003DB00200146BDE8F08DC1F30A52C1F37B
:100A5000130141F480154FF0000BD10702D10018AB
:100A60006D41521E0027044640F2FF11384601EB4B
:100A7000620A3E468046024600204FF48011FFF78E
:100A80009FFEC2197141BB1846EB0100B4EB030C89
:100A900075EB000C04D3E41A65EB000517460E460F
:100AA000241908F101006D4180463428E3DDF9196D
:100AB00046EB0600091BA84103D24FF0FF32134654
:100AC00001E0002213461BEB070046EB0A51BDE88C
:100AD000F04DFFF7CEBE70B5C1F30A5201F00045EC
:100AE0000024C1F3130140F2FF3341F480119A4214
:100AF00001DA002070BD40F233439A42A2F2334241
:100B000003DC5242FFF75CFE00E090402C43F1D042
:100B1000404270BD70B58C1810F8015B15F00703EA
:100B200001D110F8013B2A1106D110F8012B03E086
:100B300010F8016B01F8016B5B1EF9D12B0705D48E
:100B40000023521E0DD401F8013BFAE710F8013BD7
:100B5000CB1A921C03E013F8015B01F8015B521EF3
:100B6000F9D5A142D8D3002070BD000070B58CB07B
:100B70000121022005F00AFE032501268DF81C50F4
:100B8000002406968DF81F4006A91D4802F0EEFAD3
:100B90000121042005F0FAFD042006908DF81C5078
:100BA0008DF81F4006A9174802F0E0FA01210D0256
:100BB000284605F00FFE0121284605F017FE00210A
:100BC000284605F013FE089428020B94CDE9090489
:100BD00008A800F025F88DF8044000948DF8054031
:100BE00002940494084C8DF814606946204600F085
:100BF00037F80121204600F009F80CB070BD000064
:100C000000040240000802400020014000298168E1
:100C100002D041F0010101E021F001018160704743
:100C2000084B10B5D3F8042307490A40D0E9001453
:100C30002143D0E90240044321431143C3F8041384
:100C400010BD000000200140E030FCFFC06C80B20D
:100C500070470246002012680A4200D00120704707
:100C600030B542680F4B0C791A400B6842EA0422F7
:100C70001343436082680C4B4D791A40D1E903431A
:100C800023438C6844EA4504234313438360C26AC8
:100C9000097D22F47002491EC9B242EA0151C162C3
:100CA00030BD0000FFFEFFFCFDF7FFC070B507265A
:100CB00009290AD9C568A1F10A0404EB4404A64035
:100CC000B543A3401D43C56007E0056901EB41043E
:100CD000A640B543A3401D4305611F23072A09D23F
:100CE000446B521E02EB820293409C4391400C43A2
:100CF000446370BD0D2A09D2046BD21F02EB82023D
:100D000093409C4391400C43046370BDC46A0D3A08
:100D100002EB820293409C4391400C43C46270BD3D
:100D2000816841F080418160704700002DED0A8BA1
:100D300086B00EF0AFFA9FED43AA9FED430A0490F0
:100D40008DED000A8DED010A8DED020A3F4D404EFA
:100D50008DED030AF6EE00AA9FED3EBADFED3EBA36
:100D60009FED3ECA3E4C0027142104A810F054FE0B
:100D700096ED071A96ED0A0A286871EE000A30EE21
:100D8000410A09EE900A686820EEAA8AC0EE0B0AB2
:100D90009DED020A09EE100AA86808EE900A00EE1E
:100DA0008A0A8DED020A0BF04FFD60EE080A9DEDF8
:100DB000000A00EE8A0A8DED000A9DED020A0CF091
:100DC000FBFC60EE080A9DED010A684600EE8A0A07
:100DD0008DED010A8DED038A0FF0FCFEB0EE408A26
:100DE000B0EE681AF0EE490AB0EE690A0DF070FF35
:100DF00038EE008AF4EEC99AF1EE10FA02D2B0EEA3
:100E0000690A01E0B0EE490AB4EEE80AF1EE10FA20
:100E100001D3B0EE680A0DF0A3FFB0EE6B1AF0EE4E
:100E20004C0A0DF0FDFF84ED010AB7EE081AFFEE43
:100E3000080AB0EE480A0DF0F3FF84ED030A2770AC
:100E400092E700000AD7A33C00000000C401002084
:100E500048870020B072A83E9A99993E9A9999BE07
:100E6000A4870020002141708170C1700171017060
:100E70007047000070B5384B86B0384AD868401CBF
:100E8000D860642801D2012806D10120D86092EDF3
:100E9000130A11F04DF89860D2ED070A9FED300A61
:100EA00060EE800AFDEEE00A10EE900A002800DAFB
:100EB0004042D2ED0A0A20EE800ABDEEC00A10EED2
:100EC000101A002900DA49421C789CB10025254CF3
:100ED0001D70E678012E0FD0234C95B3B4F9223063
:100EE000B4F92020B4F91E1006B020A0BDE870406F
:100EF0000BF0EABA0125EAE7214920489FED211AC3
:100F000062C9436BCDE90256CDE9041390ED080A9E
:100F1000FDEEC00A90ED070A20EE010ABDEEC00A00
:100F20008DEC020A90ED0B0A536D126DBDEEC00AF6
:100F300015A010EE101A0BF0C7FA0020E07006B0F2
:100F400070BDFFE7B4F91C200092CAB2C1B29B6821
:100F500015A00BF0B9FAF2E7A001002048870020A5
:100F60000000C842E5000020448800207B42256440
:100F70003A25643A25647D2400000000A4870020FF
:100F8000E87F002000007A447B4325643A25643AD8
:100F900025643A25643A25643A25643A25643A255D
:100FA000643A25647D2400007B4125643A25643A37
:100FB00025643A25647D2400F0B5224B0027197A78
:100FC0005E7A491CCDB2711CCCB2D9792B2812D0D3
:100FD00081B39A7903F1340C521CD2B20CEB810C20
:100FE0009A715CF804CC1CF802C084450CD11D72C7
:100FF000222D06D01CE0491CD9719F711D725C72B4
:1010000016E01F725F7211E00E4D2C3505EB810565
:1010100055F8045CAA5C824203D001290BD10D2E45
:1010200009D35C722C2C03D15F721F72DF719F7128
:101030000120F0BD03E01F725F72DF719F7100201D
:10104000F7E70000E00100204FF4FA6181604910E9
:10105000C16040F2DC514160704700002DED028B11
:1010600082B00EF017F9DFF89C81DFF89091644DA3
:1010700040F6B83A40F2CE4BA8F1380600279FED73
:10108000628A01900A2101A810F0C6FC68685045E8
:1010900001DA401C686002F043FC00F04DFD642062
:1010A0000AF0B4FB06F090FD6868A0F2E931C729A8
:1010B0000AD2F0EE480AB0EE601A9FED540A01F031
:1010C000ABFD0FF027FB11E0A0F2B1401D280DD2BF
:1010D000B0EE480A012188F80110B0EE401AF0EE97
:1010E000400A01F099FD4FF4FA70A88169685945EA
:1010F00044DDA87A58B9B078401CC0B2B0706428FA
:1011000005D986ED018A86ED028A86ED038A99F873
:1011100006004C46012805D0307841071FD502F063
:101120009BFB2BE06079012820790AD030B16771F0
:1011300004F11C0090EC030A01F06EFD607928B107
:101140001CE00028F3D104F12800F3E72079A8B9C6
:10115000B0EE480AB0EE401AF0EE400A0CE001078B
:1011600002D506F00BF809E0800702D505F0C6F9B4
:1011700004E0301D90EC030A01F04EFD98F81400D5
:10118000444601280CD1686840F21451884207DDBA
:10119000642001F045FA01287FF474AF277571E7E8
:1011A00007F040FE707018B31648183004F06AFF5C
:1011B00014482C3004F066FF1248403004F062FFFF
:1011C0001048543004F05EFF00231A4619461846B2
:1011D000009706F095FE0E4801F04EFF01280AD058
:1011E000DDD94FF00B014FF00A0000F025F849E778
:1011F00006F074FCEFE764210120F6E7F47F00209D
:10120000147E0020DC87002000000000CDCC4C3E86
:10121000E700002070B50D460646002404E0305D6E
:1012200010F040FA641CE4B2AC42F8D370BD032065
:1012300006F076FFFEE7000030B50C4C23780A2B51
:1012400001D3002030BD0A4D627805F8120005EB8D
:101250004200521C41700A20B2FBF0F100FB112049
:1012600060705B1C2370012030BD0000B4000020C2
:101270002C8000201CB50121082005F087FA4FF4CE
:101280000060009001208DF8040000248DF80640D5
:1012900003218DF805108DF807006946034801F019
:1012A00065FF0348C0F8AC421CBD0000000C0240C2
:1012B0000080414200EE102AB7EE001AF0B5F8EEB9
:1012C000400A01EB810300265B0081EE200ADFED7E
:1012D000220A234F0143354620EE200ABCEEC00A05
:1012E00010EE104A1FFA84FC1C4C01D0634505D255
:1012F0003D81FD700120C4F8AC52F0BD00EE102A13
:101300003989B8EE400AC1EE001A00EE101AB8EEA4
:10131000400A01EEA00ABCEEC00A10EE101A89B213
:101320003981994203D20120C4F8AC0211E0B1EB3B
:10133000430F02D2C4F8AC520BE03D81F978491C4E
:10134000C9B2F970814204D1C4F8AC52FD700120D9
:10135000F0BD3046F0BD000000007A4400804142FC
:10136000B40000202DE9F041264C06462DED028BFD
:1013700004F10A05A079B0B92078A0B1217901293A
:1013800011D1214AA17812F8113002EB41022B70E1
:1013900052786A700A22491CB1FBF2F302FB131166
:1013A000A170401E2070697828783246FFF782FFCE
:1013B0000027207101281FD0A079002818D060795B
:1013C000401CC5B265713046FFF736F99FED0F1B23
:1013D00053EC112BFFF73EF841EC180B2846FFF7B2
:1013E0002BF953EC182BFFF761F901D86771A7713E
:1013F000BDEC028BBDE8F0812F706F700120A071F1
:10140000DDE70000B40000202C8000200000000078
:101410000000E03F2DE9F04788B09946DDF840A094
:10142000F0B3E9B3E2B3B9F1000F53D0A0F1010872
:101430004E1E571E01F062FE0121480605F0BEF95E
:1014400000248DF806408DF807408DF804708DF863
:10145000084001258DF805608DF809508DF802A02F
:101460001D4E8DF80A408DF803808DF80B40ADF8C5
:1014700000906946304600F0CBF98DF816408DF8A3
:1014800017408DF81850ADF80C40ADF81040ADF88D
:101490000E40ADF81240ADF814408DF8195000E040
:1014A00018E003A800F046F901220221304600F0BE
:1014B000A7F914208DF81C0003208DF81D008DF86D
:1014C0001E408DF81F5007A803F01EFF002008B033
:1014D000BDE8F0870120FAE700640040F0B587B06E
:1014E00002AA0021424800F007FADDF8130000903C
:1014F000DDF8170001909DF810003E4D012469466B
:10150000A8B1042811D1039801280ED03A4AD0423C
:101510000BD1002210460B5C401C1A44C0B2D2B260
:101520000828F8D3082A00D12C7207B0F0BD029821
:101530000026A0F58070813825D0012851D09B2845
:10154000F3D19DF800002D4F04FA00F2C0EBC0006B
:101550003B88491C1A433A809DF81220284B521EA2
:101560001844FEF78BFE9DF800000328DDD1387883
:10157000C0430007D9D13E80182221492148FEF7F7
:101580007DFE6C72D1E720490878C20601D4102094
:1015900008708E70BDF8000040BA00B200EE100A6C
:1015A000F8EEC00A9FED190A80EE801A81ED011A4B
:1015B000BDF8020040BA00B200EE900AF8EEE00A70
:1015C00080EE801A81ED021ABDF8040040BA00B224
:1015D00000EE900AF8EEE00A80EE801A81ED031A20
:1015E000A3E70B4880F83460084603F073F89CE7E3
:1015F00000640040147E002088A9CBED200200206A
:10160000AC8A0020C4010020A487002000007A4496
:10161000F47F00207CB5194C00206D462118097E0E
:101620002954401CC0B20828F8D3294640F20110C2
:1016300000F054F80020211891F820102954401C83
:10164000C0B20828F7D369464FF4817000F046F81D
:101650000020211891F828102954401CC0B20828F5
:10166000F7D3694640F2031000F038F80448007AD6
:10167000012801D100F088F97CBD0000048A002017
:10168000147E002070B586B0134E019004208DF8B2
:10169000080000208DF8090008208DF80A0008686D
:1016A000CDF80B004868CDF80F006946304600F0D1
:1016B000ADF94FF6FF7501E0641CA4B2394630461F
:1016C00000F004FA08B9AC42F6D3AC4202D30120D0
:1016D00006B070BD0020FBE70064004070B586B026
:1016E000134E009000208DF808008DF809000820A6
:1016F0008DF80A000868CDF80B004868CDF80F0097
:101700006946304600F082F94FF6FF7501E0641C2F
:10171000A4B23946304600F0D9F908B9AC42F6D344
:10172000AC4202D3012006B070BD0020FBE70000F0
:1017300000640040F0B5827A2F4D012191402A6863
:1017400042F001022A602C4E1C3632688A43326015
:10175000294A047B294B0C32A4B914688C431460C9
:101760004488C78844EA0744877A03EBC707C7F869
:1017700040460488878844EA0744877A03EBC70712
:10178000C7F84446047B012C12D114680C43146042
:10179000847A026803EBC4044FEA3242C4F840265C
:1017A000847A426803EBC4034FEA3242C3F844260A
:1017B000114AC37A121D002B136806D00B43136025
:1017C0000D4A0389143213B104E08B43F7E7136821
:1017D0008B4313600389012B02D113680B43136001
:1017E000407B012802D1306808433060286820F02F
:1017F00001002860F0BD000000660040006000406D
:10180000002A426901D00A4300E08A4342617047DE
:1018100010B50368002223F002030360036843F05D
:10182000010303604FF6FF7300E0521C4468E407B5
:1018300001D19A42F9D14268D2073ED08A79012A71
:1018400002683CD022F080020260CA79012A026854
:1018500038D022F0400202600A7A012A026834D0AD
:1018600022F0200202604A7A012A026830D022F077
:10187000100202608A7A012A02682CD022F0080243
:101880000260CA7A012A026828D022F004020260AB
:101890008A78CC78920742EA04620C7942EA0442E0
:1018A0004C79098842EA0452491E0A43C261016820
:1018B00021F001010160002114E0002010BD42F080
:1018C0008002C1E742F04002C5E742F02002C9E7CA
:1018D00042F01002CDE742F00802D1E742F00402E4
:1018E000D5E7491C4268D20701D09942F9D1406836
:1018F000C007E2D1012010BD10B500EB0113D3F8F1
:10190000B04114F004041472D3F8B04133D0E408A9
:101910005460D3F8B04104F002045472D3F8B441D7
:1019200004F00F049472D3F8B441240AD474D3F8A9
:10193000B841D472D3F8B841240A1473D3F8B8412B
:10194000240C5473D3F8B841240E9473D3F8BC41DB
:10195000D473D3F8BC41240A1474D3F8BC41240CCA
:101960005474D3F8BC311B0E937439B1016941F042
:101970002001016110BD640D1460CAE7C16841F027
:101980002001C16010BD00001CB500208DF80000D2
:101990001C48DFED1D0A90ED040A20EE200ABDEE82
:1019A000C00A10EE101A09128DF8011010EE101A6C
:1019B0008DF8021090ED050A20EE200ABDEEC00A57
:1019C00010EE101A09128DF8031010EE101A8DF88F
:1019D000041090ED060A20EE200ABDEEC00A10EEBB
:1019E000101A09128DF8051010EE101A8DF8061055
:1019F000007A8DF80700694640F20510FFF76EFE89
:101A00001CBD0000F47F002000007A4430B502467F
:101A1000002093685B0108D49068000101D5012083
:101A200003E09068C00044D5022002EB0012D2F817
:101A3000803103F00103C2F880310B7AC3B3D2F8CE
:101A400080414D681C434B7A43EAC5031C43C2F8EE
:101A500080418B7A03F00F038B72D2F8843123F02C
:101A60000F03C2F88431D2F884318C7A2343C2F850
:101A70008431CB7A8C7B0D7B43EA04634C7B24045A
:101A800044EA05242343C2F88831CB7B8C7C43EAAB
:101A900004634C7C097C240444EA01210B43C2F812
:101AA0008C31D2F8801141F00101C2F8801130BDB3
:101AB00001E00420FBE7D2F880314C7A23430C8804
:101AC00043EA4453C2F88031C3E70000002221B149
:101AD000012905D0022906D112E08268114801E0EF
:101AE0008268114802401149501A8A4214D00ADC17
:101AF000A2B16FF0806010180FD002280CD10FE057
:101B000082680B48EEE7B0F5007F09D0094940181C
:101B100003D0B0F5003F03D000207047022070478B
:101B200001207047030000040003000800010008C2
:101B3000000003100001FFF770B5164C164DA07998
:101B4000012805D1287A18B90020A07101F032FAD5
:101B5000287A01280CD194F83400401CC0B284F8D3
:101B60003400642804D90DF029F9652084F8340084
:101B70000A48018A491C89B201820A2909D90B2124
:101B8000018240F2DC514FF47A720160C0E9011227
:101B9000C16070BDF47F0020147E0020B884002056
:101BA000034610B50020024603E09C5C6040521CD6
:101BB00092B28A42F9D310BD03498988C140C8074F
:101BC00000D00120704700001C010020174A0328A4
:101BD00009D01346DFED160A93ED0B0A082809D049
:101BE0000A280ED015E0012913D1124901200968F5
:101BF00008740EE0022901D001290AD130EE600AF2
:101C000005E0022901D0012903D130EE200A82ED3E
:101C10000B0A92ED0B0AB5EEC00AF1EE10FA03D2F0
:101C20009FED050A82ED0B0A70470000A487002093
:101C30000000484204010020000000002DE9FC41A2
:101C4000134DDDE90974089E6C64C5F88810CDE970
:101C5000006710F03FFD0646012808D0286C20439D
:101C60002864042006F0FEFA012C08D00AE0E86B94
:101C70002043E86300206864C5F8880005E0082078
:101C800006F0F0FA042006F08FFA3046BDE8FC8139
:101C9000247E002070B5040006D0FF2C04D01C4B1D
:101CA00000211A4D1A7813E0042070BD01EB810663
:101CB00006EBC10605EB86067678864206D101EB77
:101CC000810000EBC10005EB800004E0491CC9B2B3
:101CD0009142EBD30020012608B1067013E0042ADC
:101CE00001D3062070BD02EB820000EBC20005EBC1
:101CF0008005521C1A7034212846FEF7D8FA2E703F
:101D00006C700720E870002070BD0000388500204E
:101D1000F4000020F0B505AC94E8E000AA240470BB
:101D200044708470C170027143718571C67107720D
:101D3000BB2141728172C1720173F0BD0178AA2981
:101D400011D14178AA290ED18178AA290BD1417AE3
:101D5000BB2908D1817ABB2905D1C17ABB2902D11F
:101D6000007BBB2801D00020704701207047000095
:101D700010B572B6002107488170C1700D21064868
:101D8000FEF795FA04480D210D30FEF790FA62B681
:101D900010BD0000F40000200886002030B5104A75
:101DA00000210E4B147814E001EB810202EBC1021A
:101DB00013F822505DB103EB82025278824206D1C1
:101DC00001EB810000EBC10003EB800030BD491C3A
:101DD000C9B2A142E8D3002030BD00003885002000
:101DE000F400002010B50446FFF7D8FF002804D106
:101DF0002046FFF74FFF08B1002010BD2046BDE888
:101E00001040FFF7CBBF000010B5D0210748FEF708
:101E10004EFA074800210170417081600120FFF7F0
:101E200039FFBDE81040FFF7A3BF00003885002050
:101E3000F4000020C178AA290ED10179FF290BD125
:101E40004179FF2908D18179FF2905D1C179FF297D
:101E500002D1007AFF2801D000207047012070478E
:101E600030B53A49034687B0087800286BD04C78E3
:101E70000022844200D34A704878354D00EB80043C
:101E800004EBC00405EB8404401C48702078002853
:101E900059D08C60092B56D2DFE803F005090525DF
:101EA000050905290500204600F00EF948E065788F
:101EB00003A80092CDE9012000231A46A321284659
:101EC00000F054F950BB9DF80F00A84223D19DF8B3
:101ED0001000A3281FD19DF8121021769DF8141030
:101EE000204661762AE0204600F0B4F828E06578C4
:101EF00003A80092CDE9012000231A46A22128461A
:101F000000F034F950B99DF80F00A84203D19DF8B4
:101F10001000A22803D0204600F060F910E09DF8E0
:101F200011109DF8120040EA0120E0839DF8131083
:101F30009DF8140040EA01202084204600F059F961
:101F4000002800D0E07007B030BD0000F400002091
:101F50003885002030B50446407887B0FF2800D18E
:101F60000120FFF73FFF3A4D0028A8606ED021788E
:101F7000002006296AD2DFE801F003121B420C4957
:101F8000E288A188607800F071FA0DE0217A0029DA
:101F90000CD0607807B0BDE8304000F069B9E28845
:101FA000A188607800F0B6FA0028EFD007B030BD05
:101FB000647803A90090CDE9010100231A46B221FB
:101FC000204600F0D3F80028F0D19DF80F00A04281
:101FD0002CD19DF81000B22828D19DF81100FF28BF
:101FE00024D19DF81200FF2820D19DF81300FF286E
:101FF0001CD19DF81400FF2818D1A86823E0A1780F
:10200000607807B0BDE8304000F0F8B903A900904F
:10201000CDE9010100231A46A421FF2000F0A6F813
:102020000028C3D19DF81000A42803D0A86800F0B0
:10203000D5F8BBE79DF80F00FFF72CFE9DF80F00C9
:10204000FFF7ACFEA86000F0D4F8AFE70420ADE7DE
:10205000F400002030B504464578002087B003A97D
:102060000090CDE9010103460246A121284600F077
:102070007DF800280AD19DF80F00A84203D19DF8F1
:102080001000A12804D0204600F0A8F807B030BD09
:102090009DF811109DF812004FF6FF7240EA0120E2
:1020A00000EB800002EA400060839DF813109DF869
:1020B000140040EA012000EB800002EA4000A08307
:1020C000204600F096F8E1E730B504464578002058
:1020D00087B003A90090CDE9010103460246A02183
:1020E000284600F043F8002806D19DF80F00A842CA
:1020F00004D0204600F072F807B030BD9DF8100003
:10210000A071C0F3C001E171C0F380012172C0F37E
:102110004001617200F00100A0729DF811109DF85D
:102120001200DFED110A40EA012000B200EE100AB1
:10213000A0829DF81320B8EEC00A9DF81410204626
:1021400041EA022180EE201A09B200EE101AE18263
:10215000B8EEC00A84ED031A80EE201A84ED041A4A
:1021600000F047F8C8E700000000C8422DE9F0473A
:1021700088B0074610A81C4690E8000715460E4692
:10218000FFF7F6FD8DE810032B463246394603A8CB
:10219000FFF7C0FD03A800F09FF85021504600F063
:1021A000F5F80D4D04004FF00001A86809D020B1EA
:1021B0008170C470214600F0D3F8204608B0BDE815
:1021C000F08730B101228270C17010F0BDFAA968A9
:1021D00048620020F2E70000F400002010B518B1BA
:1021E000002181700221C170022100F0B9F80220A3
:1021F00010BD10B518B1012181700021C1700021FE
:1022000000F0AEF8002010BD30B5174B9A780024CE
:102210001649032A07D2AA2824D19A781144521CBD
:102220009A70087030BD9A788D18521C9A70287078
:1022300098780D28F6D3487ABB2813D1887ABB2822
:1022400010D1C87ABB280DD1087BBB280AD1074A18
:1022500000200D320D5C1554401CC0B20D28F9D37E
:102260000120D8709C7030BDF4000020088600204A
:1022700010B50446002088B003A90090CDE9010103
:1022800003460246B4212046FFF770FF00281BD109
:102290009DF80F100F48A14213D19DF81010B429DA
:1022A0000FD19DF81110FF290BD19DF81210FF29B5
:1022B00007D19DF81310FF2903D19DF81410FF29B1
:1022C00004D08068FFF78AFF08B010BD8068FFF770
:1022D00090FFF9E7F400002070B505460024285D62
:1022E0000FF0D4F9641CE4B20D2CF8D370BD0000DB
:1022F0001FB500240CF0CEFF184E0390706828B96B
:1023000000220A2108200FF007FF7060642103A853
:102310000FF082FB70680028F8D000231A46694647
:102320000FF02CFF012808D02046FFF799FD641C10
:10233000E4B20A2CEAD30024E8E79DF80100FF2864
:1023400000D10120FFF74EFD0500DFD09DF8000011
:1023500028716846FFF7FEFD6871D7E7F40000209A
:10236000002809D049B101290BD0022901D0052943
:1023700002D1016B491C01637047816A491C81626B
:102380007047C16A491CC162704700002DE9F041E5
:102390000C46054610F0D8F906464FF47A704443CF
:1023A000B4FBF0F7134C1EE0E078C8B172B6002120
:1023B0001148425C6A54491CC9B20D29F9D3002066
:1023C000E07062B62846FFF7B9FC38B12846FFF73F
:1023D00031FD002800D00520BDE8F0810220FBE798
:1023E00001200FF0EDFA10F0AFF9801BB842DBD9F5
:1023F0000120F1E7F40000201586002070B588B0B8
:102400000C460646FF2926D02CB3FF2003A90090D6
:10241000CDE9010103462246B3213046FFF7A6FE6F
:1024200000280FD19DF80F000F4DB04207D19DF845
:102430001000B32803D19DF81100A04204D0A86871
:10244000FFF7CCFE08B070BD2046FFF7A7FC20B117
:10245000A968884201D00420F4E7A86800B144705C
:10246000FFF7C7FEEEE70000F400002070B5064657
:10247000A1F57A7043F6992388B0984205D2B2F557
:102480007A7F02D3B2F57A5F02D9042008B070BD1A
:102490000A20B1FBF0F5B2FBF0F403AAE1B2200A86
:1024A0008DE80700EBB22A0AB0213046FFF75EFE46
:1024B0000028EBD19DF80F00154AB04213D19DF8CA
:1024C0001000B0280FD19DF811009DF8121041EABC
:1024D0000020A84207D19DF813109DF8140040EA8F
:1024E0000120A04203D09068FFF778FECEE7906805
:1024F00058B105EB85024FF6FF7101EA42024283B3
:1025000004EB840201EA42018183FFF772FEBDE71A
:10251000F400002070B506460D46A1F10A0042F213
:10252000077188B01446884205D20A2C03D342F2C0
:102530001070844202D9042008B070BD03AAE1B231
:10254000200A8DE80700EBB22A0AB1213046FFF7D6
:102550000DFE0028F0D19DF80F00114AB04213D1B2
:102560009DF81000B1280FD19DF811109DF81200B0
:1025700040EA0120A84207D19DF813109DF81400ED
:1025800040EA0120A04203D09068FFF727FED3E77E
:10259000906808B1C5830484FFF72BFECCE70000E8
:1025A000F400002070B504460020024604EB8001D0
:1025B000401CC1F888291028F8D300204FF400658A
:1025C0002118401C81F81C21A842F9D322706270A6
:1025D0000120A070C4F8C82920764021A17162763C
:1025E00084F81C2984F81D0984F81F29010284F845
:1025F0001E2904F11C00FDF75AFE294604F58E70D1
:10260000FDF755FE122104F62610FDF750FE3E217F
:1026100004F63810FDF74BFE002070BD7047000037
:102620002DE9F84FDFF8908207460026D8F8200001
:10263000DFF888B2401CC8F8200001280CD1DBF874
:10264000000008B10FF0C4FB9D499E480CF00CFB44
:1026500014210120FEF7F0FDD8F820009FED9A0A22
:10266000DFF86892DFF868A29A4C0025F6EE000ABF
:10267000B0EB470F0CD2C4ED060A84ED090A84EDD5
:102680000C0A84ED0F0A05F029FA09F104006FE045
:102690005FD18C4D90A128460CF0E6FA94ED070A24
:1026A000984910EE100A01449748814201D297A13F
:1026B0004AE0012088F8060010EE100A9749884287
:1026C00005D997A128460CF0CFFA9D493CE0D4EDFE
:1026D0000A0A5046F0EEE00A10EE901A814205DD3B
:1026E00098A128460CF0C0FAA6492DE0D4ED0D0AB9
:1026F000F0EEE00A10EE901A814205DDA2A1284614
:102700000CF0B2FAB0491FE0D4ED100AF0EEE00A86
:1027100010EE901A514505DDACA128460CF0A4FA44
:10272000BA4911E0B0EEC00A10EE100AB84988426A
:102730000DDAB848816841F28830814207DDB6A1E0
:1027400028460CF091FAC24928460CF08DFAC1A136
:1027500076E0B0EB870F12D284ED060AC4ED090AC9
:1027600084ED0C0A84ED0F0A05F0B8F957480830DB
:102770000560C9F800505548001F056098E073D106
:10278000504DC0A128460CF06FFA94ED0A0A5D493D
:1027900010EE100A01445C48814201D2C4A14BE012
:1027A000012088F8060010EE100A5C49884205D91D
:1027B000C3A128460CF058FAC9493DE0D4ED070AF8
:1027C0005046F0EEE00A10EE901A814205DDC5A1F8
:1027D00028460CF049FA6B492EE0D4ED0D0AF0EED4
:1027E000E00A10EE901A814205DDCEA128460CF0D9
:1027F0003BFADC4920E0D4ED100AF0EEE00A10EEDE
:10280000901A514505DDD8A128460CF02DFAE6496D
:1028100012E0B0EEC00A10EE100A7D4988420EDACE
:102820007C481430816841F28830814207DDDFA1A5
:1028300028460CF019FAEB4928460CF015FAEAA1E3
:1028400028460CF011FA734803F01CFC7148143050
:1028500003F018FC6F48283003F014FC6D483C303E
:1028600003F010FC24E0FFE784ED060A84ED090A7A
:10287000002384ED0C0A84ED0F0A01261A4619463E
:102880001846009505F03CFB7CA10E480CF0ECF9D5
:1028900014210120FEF7D0FC98F8060020B9DBF8DF
:1028A000000008B10FF0F2F9C8F8205088F806507F
:1028B0003046BDE8F88F000070010020DC010020E8
:1028C00018440108001001400000000038040140D5
:1028D000CDCC4C3E488700203D3D3D3D3D3D3D3DFE
:1028E0003D3D3D3D3D3D3D3D3D20B5E7BBFA4120F1
:1028F0003D3D3D3D3D3D3D3D3D3D3D3D3D3D3D3D08
:102900000D0A0000323333C1CCCC4C00B5E7BBFA22
:1029100041D5FDB3A32E0D0A00000000CDCC4CBE66
:10292000BCECB2E2B5BD41B5E7BBFAB1E0C2EBC663
:10293000F7BCABD0D4B4EDCEF32E0D0A00000000EE
:1029400098470108C7FDB6AFB5E7BBFA41CAB12C3D
:10295000BCECB2E2B5BDB1E0C2EBC6F7BDD3BFDAA5
:1029600042B5C4D0C5BAC52E0D0AD7D4BCECCAB185
:10297000B5E7BBFA41CAC7B7F1D7AAB6AF3F0D0A50
:102980000000000068440108C7FDB6AFB5E7BBFA18
:1029900041CAB12CBCECB2E2B5BDB1E0C2EBC6F7A6
:1029A000BDD3BFDA43B5C4D0C5BAC52E0D0AD7D43E
:1029B000BCECCAB1B5E7BBFA41CAC7B7F1D7AAB6F2
:1029C000AF3F0D0A00000000B8440108C7FDB6AFD4
:1029D000B5E7BBFA41CAB12CBCECB2E2B5BDB1E07F
:1029E000C2EBC6F7BDD3BFDA44B5C4D0C5BAC52E55
:1029F0000D0AD7D4BCECCAB1B5E7BBFA41CAC7B718
:102A0000F1D7AAB6AF3F0D0A00000000A8450108A3
:102A1000CDCC4C3DF4870020C7FDB6AFB5E7BBFA7F
:102A200041CAB12CCEB4BCECB2E2B5BDB1E0C2EB50
:102A3000C6F7D0C5BAC52E0D0AD7D4BCECCAB1B5FD
:102A4000E7BBFA41CAC7B7F1D7AAB6AF3F0D0A0034
:102A5000984601083D3D3D3D3D3D3D3D3D3D3D3DB3
:102A60003D3D3D3D3D20B5E7BBFA41203D3D3D3D6F
:102A70003D3D3D3D3D3D3D3D3D3D3D3D0D0A0D0A4C
:102A8000000000003D3D3D3D3D3D3D3D3D3D3D3D6A
:102A90003D3D3D3D3D20B5E7BBFA42203D3D3D3D3E
:102AA0003D3D3D3D3D3D3D3D3D3D3D3D0D0A000033
:102AB000B5E7BBFA42D5FDB3A32E0D0A0000000016
:102AC000BCECB2E2B5BD42B5E7BBFAB1E0C2EBC6C1
:102AD000F7BCABD0D4B4EDCEF32E0D0A000000004D
:102AE000FC470108C7FDB6AFB5E7BBFA42CAB12C37
:102AF000BCECB2E2B5BDB1E0C2EBC6F7BDD3BFDA04
:102B000041B5C4D0C5BAC52E0D0AD7D4BCECCAB1E4
:102B1000B5E7BBFA42CAC7B7F1D7AAB6AF3F0D0AAD
:102B200000000000C7FDB6AFB5E7BBFA42CAB12C42
:102B3000BCECB2E2B5BDB1E0C2EBC6F7BDD3BFDAC3
:102B400043B5C4D0C5BAC52E0D0AD7D4BCECCAB1A2
:102B5000B5E7BBFA42CAC7B7F1D7AAB6AF3F0D0A6D
:102B60000000000030450108C7FDB6AFB5E7BBFA6D
:102B700042CAB12CBCECB2E2B5BDB1E0C2EBC6F7C3
:102B8000BDD3BFDA44B5C4D0C5BAC52E0D0AD7D45B
:102B9000BCECCAB1B5E7BBFA42CAC7B7F1D7AAB60F
:102BA000AF3F0D0A0000000020460108C7FDB6AF88
:102BB000B5E7BBFA42CAB12CCEB4BCECB2E2B5BDAB
:102BC000B1E0C2EBC6F7D0C5BAC52E0D0AD7D4BC4A
:102BD000ECCAB1B5E7BBFA42CAC7B7F1D7AAB6AFDC
:102BE0003F0D0A00184701083D3D3D3D3D3D3D3D3F
:102BF0003D3D3D3D3D3D3D3D3D20B5E7BBFA4220DD
:102C00003D3D3D3D3D3D3D3D3D3D3D3D3D3D3D3DF4
:102C10000D0A0D0A0000000070B5464CB0EE412AC6
:102C20002DED028BF0EE602A94ED0C1AF1EE410AC4
:102C30000EF00EFD94ED0C1AF0EE401AB0EE620AA2
:102C4000F1EE410A0EF004FD94ED0C1AF0EE408A0C
:102C5000B0EE420AF1EE410A0EF0FAFC3648B0EE50
:102C6000408A8079E8B3C4ED041AC4ED058A84ED86
:102C7000068A324DD4ED060A94ED040A95ED001A49
:102C80000121F0EE401A61EE200AB6EE001A40EE85
:102C9000C11A00EE810AC5ED061A85ED090A606BBE
:102CA0000FF072F9B0EE408A0021606B0FF06CF902
:102CB00094ED0C1AF0EE401A95ED060AF1EE410A79
:102CC0000EF0C6FC85ED060A94ED0C1A95ED090A86
:102CD000F1EE410A0EF0BCFCD5ED060A60EE880A62
:102CE00000E008E020EE210AC5ED060A85ED090A9C
:102CF000BDEC028B70BD94ED071A94ED040AF0EE62
:102D0000610A08F089FF84ED040A94ED071A94ED36
:102D1000050AF0EE680A08F07FFF84ED050A94EDDD
:102D2000071A94ED060AF0EE480A08F075FF84EDE4
:102D3000060A9EE7A4870020F47F00204887002031
:102D400000F062BB1CB50121102003F01FFD102014
:102D5000009000208DF8040003208DF8050001206C
:102D60008DF807006946024800F000FA1CBD00001B
:102D70000010024008B50121084603F01FFD0121A3
:102D8000084603F01BFD0121022003F017FD4FF060
:102D90008040C11300900823024A034800F054F811
:102DA00008BD0000000402400000024008B50121F7
:102DB000022003F003FD0121084603F0FFFC01217E
:102DC000084603F0FBFC04480090044880230246B8
:102DD000402100F039F808BD000400400000024026
:102DE00008B50121042003F0E9FC0121022003F0D1
:102DF000E5FC0121022003F0E1FC044800900448B6
:102E000080230246402100F01FF808BD0008004062
:102E10000004024008B50121082003F0CFFC012185
:102E2000084603F0CBFC0121084603F0C7FC044828
:102E30000090044802230246012100F005F808BD75
:102E4000000C0040000002402DE9FF4F89B04FF018
:102E500003098DF805904FF0020A8DF804A04FF099
:102E600001080F4600918DF806801E469346169C79
:102E70008DF807806946099800F078F98DF805907B
:102E80008DF804A08DF8068000968DF807806946BD
:102E9000584600F06BF93A4884420DD0B4F1804FA7
:102EA0000AD03848844205D03748844202D0374897
:102EB000844203D1022519E0012517E034488442F9
:102EC00008D03448844205D03348844202D0334885
:102ED000844201D1032509E03148844205D03148BC
:102EE000844202D03048844200D10925002127FACB
:102EF00001F0C00703D1491CC9B21029F7D32A46F3
:102F0000099800F0EDF9002126FA01F0C00703D17D
:102F1000491CC9B21029F7D32A46584600F0E0F9F7
:102F200002A805F039FE00254FF6FF70ADF80850F5
:102F30000390ADF81050ADF80A5002A9204605F0F4
:102F4000EDFD00231A460321204605F0F6FB05A8F7
:102F500005F076FCADF81C5005A9204605F01AFCDA
:102F60000121204605F0CEFB0021204605F0ACFDF6
:102F70000121204605F0CCFB0DB0BDE8F08F00002C
:102F8000000001400004004000080040000C004028
:102F9000000401400040014000440140004801405D
:102FA00000180040001C0040002000404FF400705A
:102FB00005F0FAB81CB505A0D0E90010CDE9001065
:102FC00069460448FEF75EFB1CBD000001010101DB
:102FD000010101017856341210B5002004F0C8F840
:102FE000214C411C00D0E060012004F0C1F8411CDC
:102FF00000D06060022004F0BBF8411C00D0A0604B
:10300000032004F0B5F8194C411C00D06063042083
:1030100004F0AEF8411C00D0E06294ED0B0AB5EE6E
:10302000C00AF1EE10FA04D310EE100A10498842DB
:1030300003DD9FED100A84ED0B0A052004F098F8DB
:10304000411C4FF0FF3402D0214604F09DFF0620C2
:1030500004F08EF80146401C04D02046BDE8104024
:1030600004F092BF10BD0000E47F0020A487002080
:1030700000401C460000FA4310B50178002488B0D7
:10308000012920D1002101700EF07CFB1C21684633
:10309000FDF70DF90D48C168009141680191806804
:1030A00002900B48416B0391C06A04900948016D7E
:1030B0000591406D06900721684609F04BF8401CC9
:1030C000C4B20EF091FB08B0204610BDE47F002092
:1030D000A4870020488700201CB50022009102210F
:1030E0008DF804108DF8062003228DF805208DF848
:1030F0000710694600F03AF81CBD00002DE9FC41BC
:103100000121082003F042FB0121082003F03EFBCF
:1031100002248DF8044000268DF806600327DFF8AE
:1031200048808DF80570012500948DF80750694698
:10313000404600F01BF88DF804408DF806608DF8CD
:10314000057000958DF807506946404600F00EF86E
:1031500009220121404600F0C3F80922002140461F
:1031600000F0BEF8BDE8FC81000C0240F0B5002282
:1031700001274FF0030C0B6807FA02F52B40AB4216
:103180002CD1066853000CFA03F4A64306600E79AE
:10319000D0F800E09E4046EA0E0606600E79012E49
:1031A00001D0022E12D18668A64386604E79D0F8EF
:1031B00008E09E4046EA0E0686604668AE434660DA
:1031C00045688E799640B6B235434560C568A543DB
:1031D000C560CC799C40C3681C43C460521C102A53
:1031E000C9D3F0BD1CB50022009101218DF8041057
:1031F0008DF806208DF805208DF807106946FFF739
:10320000B5FF1CBDFEB500250C4606468DF80850DE
:103210000AE09DF8080024FA00F0C00708D19DF8E4
:103220000800401C8DF808009DF808001028F0D315
:10323000204900208A420DD0B2F1804F0AD01E49A9
:103240008A4205D01D498A4202D01D498A4203D1D3
:10325000022019E0012017E01A498A4208D01A49D1
:103260008A4205D019498A4202D019498A4201D1BD
:10327000032009E017498A4205D017498A4202D043
:1032800016498A4200D109209DF8081002463046AE
:1032900000F026F802208DF804008DF80650012178
:1032A0008DF807108DF80500009469463046FFF749
:1032B0005DFFFEBD0000014000040040000800402A
:1032C000000C004000040140004001400044014067
:1032D0000048014000180040001C00400020004051
:1032E0004B07DB0E9A40C90810B500EB8100016A5C
:1032F0000F249C40A1430162016A1143016210BD89
:103300000246002012690A4200D001207047018362
:1033100070474FF6FF7101600021017141718171A9
:10332000C17170470AB10183704741837047000043
:1033300030B40B46002123FA01F4E40703D1491C01
:10334000C9B21029F7D3174CA2420DD0B2F1804F69
:103350000AD0154CA24205D0144CA24202D0144C03
:10336000A24203D1022319E0012317E0114CA2422B
:1033700008D0114CA24205D0104CA24202D0104CF1
:10338000A24201D1032309E00E4CA24205D00E4C0B
:10339000A24202D00D4CA24200D1092330BC1A46F1
:1033A000FFF79EBF000001400004004000080040FD
:1033B000000C004000040140004001400044014076
:1033C0000048014000180040001C00400020004060
:1033D00010B50C460146042004F016FD09480168AA
:1033E000A1430160001D0168A1430160001D016847
:1033F00021430160001D0168214301600148143030
:10340000046010BD003C014070B51C4D286800F4FC
:10341000D0741B48C16E491CC1661A49097831B382
:10342000194EA00609D52020286001463046FFF736
:1034300067FF0146002000F059F8200609D58020DA
:10344000286001463046FFF75BFF0146012000F08F
:103450004DF8E00510D54FF4807129603046FFF734
:103460004FFFBDE870400146022000F03FB804B1B4
:103470002C60016F491C016770BD0000143C0140C5
:10348000247E0020EA0000200010024010B5144CF9
:10349000206820F4D07020600020124A01461154A8
:1034A000401CC0B20328FAD30D494FF4D070143138
:1034B0000860172001F01CFF0A490120491E08700E
:1034C000206840F4D07020604FF0E0214FF40000FD
:1034D000C1F800010448816B41F00201816310BD15
:1034E000003C0140EB000020247E002070B51F4A04
:1034F000536803280DD21E4A02EB4012D468641CA4
:10350000D4601B4E1B4C6036012519B146F82030A3
:10351000255470BD215C0029FBD00021215416499F
:10352000164C0968B1FBF4F101B9A82156F8200046
:10353000181AB0FBF1F09060A0F1140149F62C4389
:1035400099420FD80A21B0FBF1F1B1F5803F01D3C8
:103550004FF6FF7150601180157555759069401CCC
:10356000906170BD1069401C106170BD001000E0DA
:10357000CC840020EB0000208C00002040420F0093
:103580003EB52748016841F080710160254800245C
:103590004460016841F0010101600121102003F045
:1035A000F5F80121880303F015F94FF4D07000906D
:1035B0008DF8044002208DF805008DF806408DF846
:1035C000070069461848FFF7D1FD20210520FFF7C5
:1035D000FFFE80210720FFF7FBFE4FF480710820DB
:1035E000FFF7F6FE17208DF8080005208DF809007A
:1035F0008DF80A408DF80B4002A801F085FE0B49BA
:10360000502081F800044FF0E0214FF40000C1F891
:103610008001172001F06CFE054804703EBD0000DB
:10362000FCED00E0001000E00010024017E000E0B8
:10363000EA00002008B50BF02DFE00904FF49670C4
:103640000EF0BEF9FFF722FF0BF024FEDFF8C0B04A
:10365000DFF8C080DFF8C0A04FF0000900906421BF
:1036600068460EF0D9F9DBF868005C46401CCBF8E0
:10367000680000200EF02EF8A16F814200D9A067EB
:1036800000270FF061F8064600250AEB4514607D1F
:1036900040B10EF077F8607D10B184F81590E661C6
:1036A0000EF0A2F8E06928B3E069301AB0F5FA7FAD
:1036B00020D80120207520889FED181A00EE100AEE
:1036C000F8EE400A80EE810A25B1012D07D0022DC7
:1036D0000ED109E010EE100AC8F8000008E010EE64
:1036E000100AC8F8040003E010EE100AC8F8080039
:1036F000012701E084F814906D1CEDB2032DC4D3B2
:103700000FB1012000E0002005494872A7E7000042
:10371000247E0020C4010020CC84002000007A44D4
:10372000147E002070B5D04000F001000C460870F7
:10373000097B0026012505293AD2DFE801F003378D
:10374000091D330088B30EF0FFFF606002200AE01D
:103750000EF0FAFF6168401AA060217829B1B0F537
:103760007A7F25D90420207322E032281FD30EF05F
:10377000EBFF60600320F6E70EF0E6FF61684FF4B0
:10378000C872401AA0602178012904D090420FD35A
:103790002573012070BD9042FAD2322808D92573D2
:1037A000022070BD2573032070BD01E000B92673AF
:1037B0000020F9E731B5124C07239DF800100122D3
:1037C000104D2846FDF772FA2846FDF7A9FA01E0E8
:1037D000641E0AD002212846FDF73BFA0028F7D0E4
:1037E0002846BDE83840FDF731BA07480168491C52
:1037F00001604FF4806004F035FD002038BD00000A
:10380000A086010000200140B00000202DE9F04713
:103810000E0081464FF0000512D00024DFF83480FE
:1038200013E0D8F800704846FFF7C4FFD8F800103E
:10383000B94207D024B1B5FBF4F080B2BDE8F087FF
:103840000020FBE7641C0544E4B2B442E9D3B5FBB5
:10385000F6F0F2E7B00000202B489FED2A0ADFEDDA
:103860002B1A41782B48DFED2A2AB7EE002A90ED7B
:103870000B1A0929F1EE410A3FD2DFE801F03E05BB
:10388000080B101318383B0080ED011A0CE080ED96
:10389000011A01E0C0ED011AC0ED032A0DE0C0EDF0
:1038A000010A08E0C0ED010AC0ED031A05E020EEB0
:1038B000420AC0ED010A80ED030AD0ED010ADFEDF6
:1038C000161A80EEA10A80ED010A90ED022AC2EEDE
:1038D000210A9FED122AC1EE021AC0ED020A90EDF4
:1038E000031A21EE811A80ED031AFFF795B9C0ED96
:1038F000011AE0E780ED011ADDE7C0ED011AC0ED25
:10390000021AD1E7DB0F493FE5000020000000006C
:10391000DB0F49BFA487002000007A440000FA436F
:1039200070B500202DED028B03F002FC054601204E
:1039300003F0FEFB1E4E04460121706B0EF024FBCB
:10394000B0EE408A0021706B0EF01EFB06F13801CC
:10395000487828B94868284448608868001B88600F
:10396000642015FB00F000EE900A12496FF063002E
:10397000B8EEE01AD1ED040AC1EE201A91ED021A58
:1039800061EE811A81EE882A81ED072A14FB00F08E
:1039900001EE900AF8EEE11A81EEA02A62EE010A29
:1039A00080EE801A81ED0A1ABDEC028B70BD00001A
:1039B000A48700204887002010B50820FFF7FAFEF2
:1039C000FCF73AFE9FED0B1B53EC112BFCF742FD6D
:1039D0009FED0A1B53EC112BFCF73CFD9FED091BDF
:1039E00053EC112BFCF736FDFCF778FE00EE100AC5
:1039F00010BD00006666666666660A40000000004C
:103A000000002640000000000000303FD0F8DC033A
:103A100006F067BDD0F8DC0306F079BD006807F05A
:103A200057BA006807F058BAC1EB011100EB8100EA
:103A3000002200F81A2F4270C2728272104670473C
:103A4000C1EB011100EB810090F84C007047C1EB15
:103A5000011100EB8100806B704710B5044690F8AF
:103A6000D403012809D0012084F8D403206807F08A
:103A70003EFA002084F8D40310BD022010BD2DE9C9
:103A8000FF4F83B00546DDE9117690F8D403DDF8E9
:103A9000408093468A4601281CD0CAEB0A100123B5
:103AA00005EB800485F8D4334FF0000984F81990B1
:103AB0000698207584F815A084F826700BF07F0016
:103AC000A07551462846FFF7AFFF5FEA0B6005D5AA
:103AD000E37505E0022007B0BDE8F08F84F8179089
:103AE000286807F0F9F9012F06D1B8F1010F03D1C9
:103AF00010B9BC2E00D9BC2684F81880B0B220853D
:103B0000CDF80080CDE9017028685A465146069BE1
:103B100007F058FA85F8D493DDE7D0F8DC0306F017
:103B20006DBD2DE9F0030E46DDE906C9DDE9087437
:103B3000C1EB061100EB81010225CA7581F8263020
:103B4000BCF1000F0AD081F82A50002463B1012B88
:103B500031D0022B28D0032B16D125E04FF00308DB
:103B600081F82A804C76F0E7BCF1010F0CD11AB134
:103B70008A7E012A19D007E0D7B9012281F83D20B9
:103B800000E0C2B181F82A50C1F82C904F6381F84F
:103B90004C408C634E7581F84D4082790068BDE8D9
:103BA000F003143107F09EBA12B191F83C20E8E717
:103BB00091F83D20E5E781F82A40E5E72DE9F0415D
:103BC00004460068064607F08EF9012876D1206881
:103BD00007F042FC002871D0206807F03DFC80020D
:103BE00003D521684FF400104861206807F034FCC9
:103BF000C00203D521684FF480104861206807F0A7
:103C00002BFC400103D521684FF08060486120689B
:103C100007F022FC800702D5216802204861206855
:103C200007F01AFC800018D521684FF00050486159
:103C3000D6F84004C00710D11021304607F008F92B
:103C4000304607F0E9F8607A022803D101212068A4
:103C500007F0DEFB2046FFF7DDFE206807F0FCFBE7
:103C6000C00102D5204600F01FFC206807F0F4FBDD
:103C7000000705D5204600F0BAF821680820486101
:103C8000206807F0E9FB800123D5206807F026FAB9
:103C9000074600254FF0010814E005F00F0108FA6F
:103CA00001F038420DD006EB4510D0F80005E9B21E
:103CB0000004204603D500F0C6F802E01CE000F046
:103CC00080FA6D1C6079A842E7D821684FF0007037
:103CD0004861206807F0C0FBC043C0060CD42068D0
:103CE000816921F010018161204600F027FC2068E5
:103CF000816941F010018161BDE8F081F8B50400EF
:103D000005D094F8D5032568002610B106E00120FF
:103D1000F8BD84F8D463204600F028F8032084F826
:103D2000D503B5F1A04F00D1A671206807F040F887
:103D3000207C8DF8000094E80F0006F0D9FF0225E2
:103D400060B90121206807F0C3FB38B9207C8DF8E9
:103D5000000094E80F0007F0F3FA10B184F8D5538F
:103D6000D5E7012084F8D5030020F8BD3EB5012138
:103D7000084602F00BFD0121802002F013FD4FF4F4
:103D8000C050009002208DF8040003208DF805003B
:103D9000104D00248DF8074069462846FFF7E6F9E4
:103DA0000A220B212846FFF79BFA0A220C212846FB
:103DB000FFF796FA43208DF8080005208DF80900DA
:103DC0008DF80A4001208DF80B0002A801F09CFA42
:103DD0003EBD000000000240D0F8DC0306F02BBC22
:103DE000D0F8DC0306F02BBC006807F058BBD0F815
:103DF000DC0306F0CCBB10B5044690F8D4030128D0
:103E00000DD0012084F8D4030121206806F0E8FFDA
:103E1000206806F0FBFF002084F8D40310BD0220C8
:103E200010BD10B5044690F8D403012809D0012034
:103E300084F8D403206807F079FB002084F8D403C9
:103E400010BD022010BD2DE9F05F054600680E464A
:103E5000074607F0F9FAC6EB061140074FF00708CE
:103E60004FF0040905EB810401D5484633E03146A3
:103E7000286807F0E9FAC0054FF0080A08D507EBF3
:103E800046114FF48070C1F8080584F84DA028E071
:103E90003146286807F0D8FA000705D507EB461128
:103EA000C1F808A506200CE03146286807F0CCFAD6
:103EB000400509D507EB46114FF48060C1F80805AD
:103EC000092084F84D000CE03146286807F0BCFA60
:103ED00000060AD5802007EB4611C1F8080584F8D2
:103EE0004D803146286807F002F83146286807F00F
:103EF000ABFA80052868314604D506F0F8FF4FF488
:103F0000007059E107F0A0FAC0074FF0200B4FF006
:103F1000010A4FF000084ED007EB4617C7F808B566
:103F2000E07E012807D184F81B80D7F8040520F42F
:103F30008030C7F80405A87930B1206BD7F8101588
:103F4000C1F31201401AA06384F84DA0C4F8448064
:103F50005246C7F808A594F8260030B1022804D0CC
:103F600003280AD0012808D013E03146286806F05B
:103F7000BEFF1020C7F808050BE0D7F8000540F099
:103F80000050C7F8000584F84C2031462846FFF75A
:103F9000C4FDA879012807D1208DA16B0144491ED9
:103FA000B1FBF0F0C00704D014F83C0F80F0010022
:103FB0002070BDE8F09F3146286807F045FA80067A
:103FC0000CD507EB4611C1F808B5A07E0128F0D149
:103FD00084F81BA0032084F84D00B4E03146286823
:103FE00007F032FA80074FF0050B75D507EB461046
:103FF0000222C0F8082594F84D10012916D0062990
:1040000019D007291CD009291AD0052933D0032932
:1040100063D004297DD008297ED00229C9D094F824
:104020004C2031462846FFF778FDC2E784F84D2042
:1040300084F84CA0F3E784F84D2084F84CB0EEE708
:1040400084F84D20616C491C6164022910D9C4F8C0
:104050004480A27E4146012A07D1E1762177D0F83B
:10406000041521F48031C0F8041584F84C90D6E78B
:1040700084F84C2022E084F84D20E17E0129CED145
:1040800094F826100329F3D1A16C491CA1640229DC
:1040900011D9C4F8488084F81B80616C032901D2CF
:1040A00084F81CA0D0F8041521F48031C0F8041560
:1040B00084F84C9002E084F84C20B0E794F8261085
:1040C00009B10229ABD1D0F8001521F0804141F0AF
:1040D0000041C0F80015A2E724E084F84D20E17EFD
:1040E00001299CD184F84C20D0F8041541F480318A
:1040F000C0F80415D0F80C1541F04001C0F80C15BB
:10410000D0F80C1521F02001C0F80C15D6E700E01E
:1041100002E084F84D20ABE784F84D20606C401C31
:104120006064A2E73146286807F08EF9400610D592
:1041300007EB46114020C1F8080584F84DB0A07E79
:1041400008B9C4F8448031462868BDE8F05F06F03D
:10415000CEBE3146286807F077F9C0067FF565AF17
:1041600094F82600032803D028B1022803D00FE0DA
:10417000C4F8448006E0C4F84480A87910B1E07E19
:10418000012818D184F84D903146286806F0AFFE1A
:10419000E07E01280FD107EB461084F81B80D0F891
:1041A000041521F48031C0F80415D0F80C1541F045
:1041B0002001C0F80C15102007EB4611C1F80805C6
:1041C000F7E62DE9F05F054600680F46064607F062
:1041D0003BF9C7EB071140074FF0040A05EB8104D8
:1041E00005D506EB4711C1F808A5072089E0394637
:1041F000286807F029F980064FF000084FF0010900
:104200004FF0020B28D506EB47112020C1F8080516
:10421000607E0326012809D184F8198084F84CB007
:1042200084F84D603946286806F061FEA07E0128BA
:1042300010D1E07E00280DD194F82600012801D08D
:1042400084F81B9084F84D603946286806F04FFECC
:10425000C4F84480BDE8F09F3946286807F0F4F8B8
:10426000800506D506EB47114FF40070C1F808052C
:1042700049E03946286807F0E7F8C00720D0C4F8BD
:1042800044803946286807F0DFF8400606D506EB7B
:10429000471184F819904020C1F80805E07E48B124
:1042A00006EB471084F81B80D0F8041521F4803108
:1042B000C0F8041506EB47114846C1F8089520E000
:1042C0003946286807F0C0F840060ED5052084F866
:1042D0004D00A07E08B984F81990C4F8448039468E
:1042E000286806F004FE402028E03946286807F0D8
:1042F000ABF800070DD506EB47110820C1F80805FB
:10430000062084F84D0039462868BDE8F05F06F0C5
:10431000EEBD3946286807F097F8C00613D5C4F8F3
:10432000448084F84DA0607E18B9207E08B984F8D6
:1043300019903946286806F0DAFD102006EB47117F
:10434000C1F8080586E73946286807F07DF80006B9
:104350001CD5A87970B1606C401C6064022811D92A
:10436000C4F84480524684F84CA039462846FFF7EA
:10437000D4FB09E0072084F84D003946286806F090
:10438000B6FD01E084F84CB08020D7E739462868B4
:1043900007F05AF8400509D5092084F84D00394640
:1043A000286806F0A4FD4FF48060C7E73946286806
:1043B00007F04AF88007C5D506EB47115A46C1F801
:1043C00008B594F84D00012817D003283AD00428E6
:1043D00040D005284ED006284FD0072801D0092804
:1043E000B0D184F84D20606C401C606402284AD92A
:1043F000C4F8448084F84CA04FE084F84D2084F841
:104400004C9094F82600022801D0032845D1A879C1
:1044100028B994F83D0080F0010084F83D00A879A7
:1044200001283AD1606B20B3218D0844401EB0FBB7
:10443000F1F0C00731D094F83D0080F0010084F81D
:104440003D002AE084F84D20E07E012825D184F843
:104450004C2022E084F84D2084F84C20E07E012896
:104460001BD184F81B80D1F8040520F48030C1F8FA
:10447000040512E084F84D20E9E784F84D2005207A
:1044800084F84C0009E084F84C20D1F8000520F0B5
:10449000804040F00040C1F8000594F84C203946B7
:1044A0002846FFF73AFBD5E67CB504680546D4F804
:1044B00040040190D4F8400420F02E0000900198B0
:1044C000800709D50198C00702D02846FFF79EFA59
:1044D000009840F0020000900198000724D5009851
:1044E00040F008000090019840071AD5687A022829
:1044F00003D0E87901280CD00FE00198C0F34140C7
:104500000228286803D0012106F082FF05E002217D
:10451000FAE74EF66020C4F804042846FFF760FC72
:1045200002E02846FFF758FC01988006009802D563
:1045300040F020000090C4F840047CBD2DE9F0411B
:10454000024600680746016AC1F3434301F00F06C3
:10455000C1F30A15022B2ED1002D2CD0C6EB06116B
:1045600002EB8104E16A002925D0A26B636B2A4427
:104570009A4222D82A4606F073FFE06A2844E06295
:10458000A06B2844A06307EB4610D0F81015228DCD
:10459000C1F3C941AA420ED100290CD0D0F80015B0
:1045A00021F0804141F00041C0F8001514F83C0FA3
:1045B00080F001002070BDE8F081042084F84C00F8
:1045C000F9E7000070B5064614460D4610EE100AD5
:1045D000FCF758F841EC100B9FED391B08F0DCF9A3
:1045E00051EC100BFCF77AF800EE900ADFED361A6A
:1045F0000621B7EE001A80EEA10AF0EE412AB0EED5
:10460000412AFDEEC00A10EE900A90FBF1F201FB88
:10461000120300EE903A062BF8EEE00A70EE600A04
:104620009FED2A0A40EEC12A71EE600AF0EE401AB0
:1046300000EEC12A28D2DFE803F003080F161B2082
:10464000F0EE410AB0EE420A03E0F0EE620AB0EE8C
:10465000410AB0EE611A1BE0B0EE410AF0EE610AC9
:10466000B0EE421A14E0F0EE610AB0EE620A0FE01A
:10467000F0EE420AB0EE610A0AE0F0EE410AB0EE56
:10468000610AB0EE621A03E0B0EE401AF0EE400AA2
:10469000DFED0F1A60EEA10A20EE210AFCEEE00A1F
:1046A000BCEEC00A10EE900A307010EE100A21EE37
:1046B000210A2870BCEEC00A10EE100A207070BDEE
:1046C0000000000000807640000070420000000002
:1046D00000007F4370B5417802789FED341A01EBFA
:1046E000022109B200EE101A31494FF07C54F8EE65
:1046F000C00A80EE810ADFED2F0A81ED070AC1EDC5
:10470000080A4279037902EB032212B201EE902AE1
:10471000294AF8EEE11A81EE812A81ED092A13690E
:10472000A34202DB5269A2420ADA244A92F84820E4
:10473000052A05D1B6EE001A20EE010A81ED070A1E
:10474000827902F00105CD718279C2F340160E70B4
:104750008279C2F300134B7082793344C2F3C004F0
:10476000CC708279C2F380028A7022449A180A714E
:1047700000D01DB1C1ED070AC1ED090AC07980283A
:1047800009D9C0F58070A0EB0010400000EE100ABF
:10479000B8EEC00A06E0C0EB0010400000EE100AC0
:1047A000B8EE400A81ED030A70BD000000007A44B3
:1047B000F47F002000000000C40100204887002092
:1047C000012003F0ADFCFEE770B50D4C0025C4F8E8
:1047D000A4520C48016821F440310160016841F4A1
:1047E00080310160C4F8A052012004F528740AF059
:1047F000CDFC012060600AF0C9FC656070BD00005E
:1048000000804042000402402DE9FC4101210220C9
:1048100001F0BCFF0121022001F0B8FF01248DF856
:10482000044000254FF400708DF8065003260F4F0A
:1048300000908DF805608DF8074069463846FEF710
:1048400095FC8DF8044020028DF8065000908DF8FC
:1048500005608DF8074069463846FEF787FC044836
:10486000C0F8A442C0F8A042BDE8FC8100040240A8
:104870000080404270B50D4C0026C4F8A4620C487C
:10488000016821F440310160016841F48031016028
:104890000125C4F8A052284604F528740AF076FCD5
:1048A000656001200AF072FC666070BD00804042C5
:1048B000000402402DE9F0478146184800250168B0
:1048C00021F44031016001680160154E2C462F46ED
:1048D0004FF00108C6F8A47201200AF057FCC6F890
:1048E000A4826806D6F82012000E11B140F001052E
:1048F00001E020F0010501200AF048FC641CE4B24C
:10490000082CE7D3B9F1000F04D0FFF7B3FF284616
:10491000BDE8F087FFF758FFF9E700000004024008
:104920000080404270B50D46044600F01BF820465A
:1049300000F0B0F800F05EF8284600F0ABF800F0A8
:1049400059F800F00FF844F0010000F0A3F800F06F
:1049500051F80120FFF7AEFF044600F02BF8204687
:1049600070BD000070B51148016821F4403101604C
:10497000016841F4803101600D4C0120C4F8A002AF
:10498000D4F8201200290FD0C4F8A4020AF0FEFBCC
:104990000025C4F8A052D4F82002002804D1012038
:1049A0000AF0F4FBC4F8A45270BD000000040240F9
:1049B000008040420D4810B5016821F4403101608B
:1049C000016841F480310160094C0020C4F8A40260
:1049D000C4F8A002012004F528740AF0D7FB0120D6
:1049E00060602060BDE810400AF0D0BB00040240C7
:1049F0000080404270B512480024016821F4403123
:104A00000160016801600F4D0126C5F8A0623046C3
:104A10000AF0BCFBC5F8A46207E0641CE4B2322CC7
:104A200003D9FFF7C7FF002070BD01200AF0AEFBDD
:104A3000D5F820020028F0D1C5F8A402012070BDED
:104A400000040240008040422DE9F0411D4614461A
:104A50000F468046069EFFF765FF621CFF21C4F1EA
:104A6000080301FA02F22B445B1ED9400A43C5F148
:104A700008018E40D2B2F1B2C4F10703D940104010
:104A800040EA01023946404600F034F80120BDE812
:104A9000F08100002DE9F04105461448016821F439
:104AA00040310160016841F480310160104E0027FF
:104AB000C6F8A4723C464FF00108E809C6F8A00207
:104AC0006806050E01200AF061FBC6F8A4820120E9
:104AD0000AF05CFBC6F8A47201200AF057FB641CC4
:104AE000E4B2082CE9D3BDE8F081000000040240E4
:104AF0000080404270B515460E460446FFF732FF6F
:104B00002046FFF7C7FFFFF775FF3046FFF7C2FFEC
:104B1000FFF770FF2846FFF7BDFFFFF76BFFFFF7BA
:104B200049FF012070BD00000F4820B5811C021D07
:104B30000AF0CAFB0D484068B0F57A7F12DB0A49DB
:104B40001E39CA8B8A810B8CCB81488C08820D88D8
:104B5000521BCA834A889A1A0A848A88801A00F5E6
:104B600080404884204620BD62880020147E0020BA
:104B70000E4820B5811C021D0AF016FC0C48406846
:104B8000B0F57A7F10DB094918390A8B4A824B8BC2
:104B90008B82888BC882CD88521B0A830A899A1A15
:104BA0004A834A89801A8883204620BD5C88002079
:104BB000147E00200021D020FFF7B4BE08B50AF013
:104BC00069FB0F4F0D4C4FF47A7507F1180807F188
:104BD0001E0600900A2168460CF01EFF6068A8427D
:104BE00007DA4146B81D00F00DF83146044800F0E0
:104BF00009F8FFF799FFFFF7BBFFEBE7147E0020F2
:104C0000448800200A8802804A88428089888180FE
:104C1000704730EEC00A44F2A01280ED000AD0EDD9
:104C2000010A30EE601AD0ED030AF8EEE00A61EEF8
:104C3000200A90ED041AB8EEC11A41EE000A90ED78
:104C4000021AB8EEC11A70EE810AFDEEE00A10EE0B
:104C5000901A8160914202DC5242914200DA8260F5
:104C600080ED010A806870471CB50121042001F025
:104C70008DFD2020009000208DF8040003208DF889
:104C8000050001208DF8070069460248FEF76EFA1C
:104C90001CBD00000008024000EE100AB7EE001A2A
:104CA00070B5F8EE400A3948394D002281EE200AED
:104CB000DFED350A437820EE200A4BB102704280C6
:104CC0008280C2800281D5F81432012B00D142705B
:104CD000D5F81432012463B9437853B90470C388FA
:104CE0005B1C9BB2C3808B4203D9C28083885B1C50
:104CF0008380DFED280A868880EE801AFCEEC10AE8
:104D000010EE903A9BB2B34202D24470032070BDC1
:104D10000378B3B3D5F81432012B09D103895B1C96
:104D20009BB203818B4203D902814188491C418097
:104D3000DFED190A80EE801AFCEEC10A10EE901A1F
:104D4000DFED160A8AB241888A420ED280EE801ABE
:104D5000BCEEC11A11EE102A92B28A4205D9D5F8DA
:104D6000141271B94470022070BD80EE801ABCEE3E
:104D7000C10A10EE102A92B28A4203D24470012076
:104D800070BDFFE70020FBE700007A44C800002068
:104D9000000041420000FA430000484200009643F0
:104DA00000221249012370B101280FD002280FD030
:104DB000032811D0042811D0052813D006280AD1C1
:104DC0000A704A7006E00A704B7009E00A7000E051
:104DD0000B704B708A7070470B70F2E70B7002E03B
:104DE0008B7070470A704A70FAE70000D400002008
:104DF00030B41949194A0C78137851789278022CFA
:104E000014D3012803D000221146104605E03BB11F
:104E1000002039B100213AB1002230BC00F022B8A4
:104E2000FF20F6E7FF21F6E7FF22F6E7012C09D184
:104E30000B4C012808D00120C4F8B802C4F8B40211
:104E4000C4F8BC0230BC7047C4F8B832C4F8B4121D
:104E5000C4F8BC22F6E70000147E0020D400002035
:104E60000080414270B514460D460BF037FC074BED
:104E7000186028460BF032FC0549886320460BF089
:104E80002DFC0249091F086070BD00003818004061
:104E90000040014070B53C21D020FFF743FD04469F
:104EA0003B21D020FFF73EFD04EB0020184C3E21B3
:104EB000E083D020FFF736FD05463D21D020FFF7E7
:104EC00031FD05EB002020844021D020FFF72AFD92
:104ED00005463F21D020FFF725FD05EB00200D49B9
:104EE00000B260844968B1F57A7F0FDBE18BA18164
:104EF000228CE28120822388C91AE1836188511AB9
:104F00002184A188401A00F58040608470BD0000B3
:104F100044880020147E002070B54421D020FFF783
:104F200001FD04464321D020FFF7FCFC04EB0020E8
:104F3000174C46212083D020FFF7F4FC054645217D
:104F4000D020FFF7EFFC05EB002060834821D02044
:104F5000FFF7E8FC05464721D020FFF7E3FC05EB0F
:104F600000200C4900B2A0834968B1F57A7F0DDBBF
:104F7000218B6182628BA282E082E388C91A21833D
:104F80002189511A61836189401AA08370BD000094
:104F900044880020147E0020BC2801D3012210E0A8
:104FA000622801D302220CE02A2801D3032208E060
:104FB000142801D3042204E00A2801D3052200E0CA
:104FC00006221A21D020FFF795BD10B504464FF4F4
:104FD0007A70844201D9044602E0042C00D20424F1
:104FE000B0FBF4F0401EC2B21921D020FFF782FDC1
:104FF0006008BDE81040FFF7CFBF7521D020FFF754
:1050000091BC10B580226B21D020FFF773FDC82022
:105010000AF0A0F800226B21D020FFF76BFD0120E1
:1050200000F03AF8002000F02EF83220FFF7CDFF14
:1050300000223821D020FFF75DFD00226A21D02018
:10504000FFF758FD00222321D020FFF753FD8022D7
:105050003721D020FFF74EFD7521D020FFF762FCED
:10506000682801D0012010BD01226B21D020FFF75C
:1050700041FD00226C21D020FFF73CFD3220FFF7DC
:10508000A4FF002010BD08B50223009004221C21BB
:10509000D020FFF7D9FC08BD08B5022300900422F8
:1050A0001B21D020FFF7D0FC08BD000008B50AF096
:1050B000F1F80F4F0D4C4FF47A7507F1180807F10E
:1050C0001E0600900A2168460CF0A6FC6068A84203
:1050D00007DA4146B81DFFF795FD31460448FFF752
:1050E00091FDFFF7D7FEFFF717FFEBE7147E0020D7
:1050F00044880020124910B5104808600122114967
:10510000114805F089F908B1FDF750FF0F490E4825
:1051100005F08CFD08B1FDF749FF0D490A4805F07F
:1051200085FD08B1FDF742FF074805F0C6FD0028E0
:1051300003D0BDE81040FDF739BF10BD08010020C5
:1051400004010020D1AC0008B890002044020020E7
:1051500064020020022002F0E3FFFEE770B50121A7
:10516000022001F013FB0121022001F00FFB0121BD
:10517000042001F00BFB0121102001F007FB0121AD
:10518000082001F003FB0121082001F0FFFA0121B2
:10519000042001F0FBFA0121084601F0F7FA1E4D48
:1051A0004FF400512846FEF71DF8AC14214628465E
:1051B000FEF718F8194D01212846FEF713F8E10013
:1051C0001748FEF70FF8174EA1103046FEF70AF801
:1051D00021463046FEF706F821462846FEF702F83B
:1051E00021111148FDF7FEFF10490020C1F8B4025B
:1051F000C1F8B0020E4AC2F880020E49C1F8BC02E2
:105200000D49C1F8A802C1F8B002C2F8B0020B49BA
:10521000C1F8A00270BD0000000402400008024076
:1052200000100240000C024000000240008040429A
:1052300000004142000042420080414200004042E2
:105240002DE9FE430C460546FFF788FF01210220A9
:1052500001F0C0FA0121042001F098FA0121022096
:1052600001F0B8FA0121042001F090FA0121022096
:1052700001F0B0FA0121042001F088FA0121022096
:1052800001F0A8FA0121042001F080FA144FDFF8A0
:105290005480CDE90054002604233A46D901404603
:1052A000029603F083FCCDE9005403233A46B91576
:1052B0004046029603F07AFCCDE9005402233A46B8
:1052C00080214046029603F071FCCDE90054012391
:1052D0003A4640214046029603F068FCBDE8FE8352
:1052E0000004014000080240052002F019FFFEE71B
:1052F00000F01F02012191404009800000F1E020F0
:10530000C0F880127047000030B50F23C2780178D2
:105310000125FAB1144A126801F1E02102F4E062B9
:10532000C2F5E062C2F30722C2F10404D34042781E
:10533000A24084781C401443220181F800240078A4
:1053400000F01F018D404009800000F1E020C0F80E
:10535000005130BD01F01F0085404809800000F178
:10536000E020C0F8805130BD0CED00E00249084358
:1053700002490860704700000000FA050CED00E0EB
:1053800030B40021084B0A46002003EBC004401C47
:10539000C0B262548028F8D3491CC9B20829F3D39B
:1053A00030BC00F049B90000B880002010B50021E1
:1053B000074B0A46002003EBC004401CC0B26254F5
:1053C0008028F8D3491CC9B20829F3D310BD0000C6
:1053D000B88000202DE9F0471F4690460E468246D1
:1053E0000025DDF8209011E03146504600F06CF9C0
:1053F000544607E019F8050001216D1C00F0F2FD8C
:10540000641CE4B24445F5D3761CF6B2BE42EBD33D
:10541000BDE8F08710B57F2816D83F2914D8072398
:10542000A3EBD10301F00701C1F107040121A14061
:10543000064CDBB204EBC000002AC25CC9B201D04A
:105440000A4300E08A43C25410BD0000B880002027
:105450001CB5009101218DF8041000218DF8061073
:105460008DF805108DF807106946FDF77FFE1CBD0D
:10547000524810B50078524C03287CD05148206027
:10548000006800F0A9F82068806800F0A5F820689E
:10549000006900F0A1F82068806900F09DF820689C
:1054A00081880068FFF7D4FF206881898068FFF752
:1054B000CFFF2068818A0069FFF7CAFF2068818BCF
:1054C0008069FFF7C5FF20680021103000F0AEF8BA
:1054D000642009F03FFE20680121103000F0A6F89A
:1054E0000021AE2000F07EFD0021D52000F07AFDE5
:1054F0000021502000F076FD0021A82000F072FD70
:1055000000213F2000F06EFD0021D32000F06AFD55
:105510000021084600F066FD0021402000F062FDF9
:1055200000218D2000F05EFD0021142000F05AFDC6
:105530000021202000F056FD0021022000F052FD45
:105540000021A12000F04EFD0021C02000F04AFD06
:105550000021DA2000F046FD0021122000F042FD7B
:105560000021812000F03EFD0021EF2000F03AFDF7
:105570000021D92000E01DE000F034FD0021F120E1
:1055800000F030FD0021DB2000F02CFD0021302058
:1055900000F028FD0021A42000F024FD0021A62019
:1055A00000F020FD0021AF2000F01CFDBDE8104000
:1055B000FFF7E6BE0348203061E70000147E0020BC
:1055C000DC0000200440010801210170417000212D
:1055D00081700521C17070470F49884202D10121B5
:1055E000084616E00D49884202D10121022010E050
:1055F0000B49884202D1012104200AE0094988426E
:1056000002D10121082004E00749884203D1012189
:10561000102001F0BBB870470000024000040240B7
:1056200000080240000C0240001002400A46818837
:105630000068FDF777BE000070B5104E002505F13B
:10564000B000C0B2002100F0CDFC0021084600F0FF
:10565000C9FC0021102000F0C5FC002406EBC400AA
:105660000121405D00F0BEFC641CE4B2802CF5D347
:105670006D1CEDB2082DE2D370BD0000B880002093
:1056800070B5104E002505F1B000C0B2002100F049
:10569000A9FC0021084600F0A5FC0021102000F024
:1056A000A1FC002406EBC4000121405D00F09AFC3F
:1056B000641CE4B2802CF5D36D1CEDB2022DE2D354
:1056C00070BD0000B880002010B50446B031C8B2EB
:1056D000002100F087FC102040EA1410002100F0A7
:1056E00081FC04F00F00BDE81040002100F07ABCFE
:1056F0002DE9F05F203A98460D468346894602F030
:10570000FF0A00262EE0B8F10C0F08D0174901EB74
:105710000A100027845D200607D50A9A08E014497C
:105720000AEB4A0001EB8000F3E70A9890B10022EF
:1057300029465846FFF76EFE6D1C6006EDB2040E5A
:10574000A5EB0901414507D10BF101004D4600F0E1
:10575000FF0B05E00122EBE77F1CFFB2082FDAD335
:10576000761CF6B24645CED3BDE8F09FD42F010893
:10577000602B01080149002008707047B00100202B
:105780002DE9FF4F81B00027DDF838B01D46924665
:1057900080463C464FF001094FEA5B062BE0281B90
:1057A000401E0A22C0B2012100E05143401EC0B297
:1057B000FBD2BAFBF1F00A21B0FBF1F201FB1200BF
:1057C00027B9691E8C4201DA48B101273030C2B2D4
:1057D00006FB0480C0B25B46CDF8009006E006FBF5
:1057E0000480C0B25B462022CDF800900299FFF7FA
:1057F0007FFF641CE4B2AC42D1D305B0BDE8F08FAA
:10580000F8B516460D460446012714E07A2C02D955
:1058100000241035EDB23A2D03D900242546FFF7B8
:10582000AFFD009732780C2329462046FFF760FF32
:105830000834E4B2761C30780028E7D1F8BD0000C7
:10584000F8B5FE4C20786178884206D0FFF798FDC5
:10585000FFF7F2FE20786070F8BDF94EF94F0C2585
:10586000607001280CD002287ED003287DD042F23F
:10587000107604287AD0052879D0002878D046E31D
:1058800040F2C7140A210C20FDF7C0FFB0FBF4F46E
:10589000B07900B3ECA200210846FFF7B1FFEC4855
:1058A0000078D0B1EBA200212620FFF7A9FFEAA2E1
:1058B00000213C20FFF7A4FFE84CB4F91C000028AD
:1058C00013DAE7A200215020FFF79AFF0095B4F900
:1058D0001C00424211E0E3A2DDE702232246002140
:1058E00028200095FFF74CFFE1E7E0A200215020BF
:1058F000FFF786FF0095B4F91C20052300215A20EC
:10590000FFF73EFFDA4C2078C10701D0D9A212E0A0
:10591000810701D5D9A20EE0410701D5D9A20AE03D
:10592000010701D5D9A206E0C10601D5D9A202E03E
:10593000800604D5D9A232210020FFF761FF6078EC
:10594000F8B1D8A232212D20FFF75AFF022397ED9C
:10595000130A1A4632214B200AF09EF8C6A23221C1
:105960004B20FFF74DFF04E00DE044E096E049E1F5
:105970007EE2CDA232217820FFF742FF09F076FFC8
:10598000C5E2CAA2DEE7CAA200210720FFF738FF5E
:105990000095327801230A210920FFF7F1FE0095D6
:1059A000727801230A212720FFF7EAFE0095F2789A
:1059B00001230A214520FFF7E3FE0095B278012379
:1059C0000A216320FFF7DCFEBDA21E210020FFF7A5
:1059D00017FFBDA21E214B20FFF712FFD6ED030AD1
:1059E0009FEDBA1A02231E2180EE810A1A4608464C
:1059F0000AF052F88BE20021B5A20846FFF700FF3B
:105A0000B6A200214220FFF7FBFEB6A20C21002027
:105A1000FFF7F6FE009597F8482002230C2142205C
:105A2000FFF7AEFEB2A218210020FFF7E9FEB24C4C
:105A3000207809F003FC024618214220FFF7E0FE1F
:105A4000AEA224210020FFF7DBFE607809F014FCF1
:105A5000024624214220FFF7D3FEAAA230210020D3
:105A6000FFF7CEFEA84C00950323227830211820A2
:105A7000FFF786FE00953021627803230846FFF782
:105A80007FFE0095A278032330214820FFF778FE9F
:105A9000009503233021E2786020E6E100219BA2FB
:105AA0000846FFF7ADFE9A4C009522880523002199
:105AB0001020FFF765FE97A200213020FFF7A0FE1F
:105AC000207D08B194A200E076A200214820FFF7D3
:105AD00097FE92A20A210020FFF792FE0095A2688D
